{
  "contractName": "FileSharing",
  "abi": [
    {
      "inputs": [
        {
          "internalType": "string",
          "name": "_fileName",
          "type": "string"
        },
        {
          "internalType": "string",
          "name": "_ipfsHash",
          "type": "string"
        }
      ],
      "name": "addFile",
      "outputs": [],
      "stateMutability": "nonpayable",
      "type": "function"
    },
    {
      "inputs": [
        {
          "internalType": "string",
          "name": "_fileName",
          "type": "string"
        },
        {
          "internalType": "address",
          "name": "_recipient",
          "type": "address"
        }
      ],
      "name": "shareFile",
      "outputs": [],
      "stateMutability": "nonpayable",
      "type": "function"
    },
    {
      "inputs": [
        {
          "internalType": "string",
          "name": "_fileName",
          "type": "string"
        }
      ],
      "name": "getFile",
      "outputs": [
        {
          "internalType": "string",
          "name": "",
          "type": "string"
        }
      ],
      "stateMutability": "view",
      "type": "function",
      "constant": true
    }
  ],
  "bytecode": "0x608060405234801561001057600080fd5b50610cf9806100206000396000f3fe608060405234801561001057600080fd5b50600436106100415760003560e01c8063248bfc3b14610046578063e0876aa814610062578063ebceb82c14610092575b600080fd5b610060600480360381019061005b919061085e565b6100ae565b005b61007c600480360381019061007791906107c9565b610263565b6040516100899190610a0b565b60405180910390f35b6100ac60048036038101906100a7919061080a565b6103d6565b005b600080836040516100bf91906109f4565b908152602001604051809103902060000180546100db90610b93565b90501461011d576040517f08c379a000000000000000000000000000000000000000000000000000000000815260040161011490610a6d565b60405180910390fd5b60405180606001604052808281526020013373ffffffffffffffffffffffffffffffffffffffff168152602001600067ffffffffffffffff81111561018b577f4e487b7100000000000000000000000000000000000000000000000000000000600052604160045260246000fd5b6040519080825280602002602001820160405280156101b95781602001602082028036833780820191505090505b508152506000836040516101cd91906109f4565b908152602001604051809103902060008201518160000190805190602001906101f792919061061f565b5060208201518160010160006101000a81548173ffffffffffffffffffffffffffffffffffffffff021916908373ffffffffffffffffffffffffffffffffffffffff160217905550604082015181600201908051906020019061025b9291906106a5565b509050505050565b60603373ffffffffffffffffffffffffffffffffffffffff1660008360405161028c91906109f4565b908152602001604051809103902060010160009054906101000a900473ffffffffffffffffffffffffffffffffffffffff1673ffffffffffffffffffffffffffffffffffffffff1614806102e657506102e5823361050b565b5b610325576040517f08c379a000000000000000000000000000000000000000000000000000000000815260040161031c90610a2d565b60405180910390fd5b60008260405161033591906109f4565b9081526020016040518091039020600001805461035190610b93565b80601f016020809104026020016040519081016040528092919081815260200182805461037d90610b93565b80156103ca5780601f1061039f576101008083540402835291602001916103ca565b820191906000526020600020905b8154815290600101906020018083116103ad57829003601f168201915b50505050509050919050565b3373ffffffffffffffffffffffffffffffffffffffff166000836040516103fd91906109f4565b908152602001604051809103902060010160009054906101000a900473ffffffffffffffffffffffffffffffffffffffff1673ffffffffffffffffffffffffffffffffffffffff1614610485576040517f08c379a000000000000000000000000000000000000000000000000000000000815260040161047c90610a4d565b60405180910390fd5b60008260405161049591906109f4565b9081526020016040518091039020600201819080600181540180825580915050600190039060005260206000200160009091909190916101000a81548173ffffffffffffffffffffffffffffffffffffffff021916908373ffffffffffffffffffffffffffffffffffffffff1602179055505050565b600080600090505b60008460405161052391906109f4565b908152602001604051809103902060020180549050811015610613578273ffffffffffffffffffffffffffffffffffffffff1660008560405161056691906109f4565b908152602001604051809103902060020182815481106105af577f4e487b7100000000000000000000000000000000000000000000000000000000600052603260045260246000fd5b9060005260206000200160009054906101000a900473ffffffffffffffffffffffffffffffffffffffff1673ffffffffffffffffffffffffffffffffffffffff161415610600576001915050610619565b808061060b90610bc5565b915050610513565b50600090505b92915050565b82805461062b90610b93565b90600052602060002090601f01602090048101928261064d5760008555610694565b82601f1061066657805160ff1916838001178555610694565b82800160010185558215610694579182015b82811115610693578251825591602001919060010190610678565b5b5090506106a1919061072f565b5090565b82805482825590600052602060002090810192821561071e579160200282015b8281111561071d5782518260006101000a81548173ffffffffffffffffffffffffffffffffffffffff021916908373ffffffffffffffffffffffffffffffffffffffff160217905550916020019190600101906106c5565b5b50905061072b919061072f565b5090565b5b80821115610748576000816000905550600101610730565b5090565b600061075f61075a84610abe565b610a8d565b90508281526020810184848401111561077757600080fd5b610782848285610b51565b509392505050565b60008135905061079981610cac565b92915050565b600082601f8301126107b057600080fd5b81356107c084826020860161074c565b91505092915050565b6000602082840312156107db57600080fd5b600082013567ffffffffffffffff8111156107f557600080fd5b6108018482850161079f565b91505092915050565b6000806040838503121561081d57600080fd5b600083013567ffffffffffffffff81111561083757600080fd5b6108438582860161079f565b92505060206108548582860161078a565b9150509250929050565b6000806040838503121561087157600080fd5b600083013567ffffffffffffffff81111561088b57600080fd5b6108978582860161079f565b925050602083013567ffffffffffffffff8111156108b457600080fd5b6108c08582860161079f565b9150509250929050565b60006108d582610aee565b6108df8185610af9565b93506108ef818560208601610b60565b6108f881610c9b565b840191505092915050565b600061090e82610aee565b6109188185610b0a565b9350610928818560208601610b60565b80840191505092915050565b6000610941600d83610af9565b91507f4163636573732064656e696564000000000000000000000000000000000000006000830152602082019050919050565b6000610981601983610af9565b91507f4f6e6c792066696c65206f776e65722063616e207368617265000000000000006000830152602082019050919050565b60006109c1601383610af9565b91507f46696c6520616c726561647920657869737473000000000000000000000000006000830152602082019050919050565b6000610a008284610903565b915081905092915050565b60006020820190508181036000830152610a2581846108ca565b905092915050565b60006020820190508181036000830152610a4681610934565b9050919050565b60006020820190508181036000830152610a6681610974565b9050919050565b60006020820190508181036000830152610a86816109b4565b9050919050565b6000604051905081810181811067ffffffffffffffff82111715610ab457610ab3610c6c565b5b8060405250919050565b600067ffffffffffffffff821115610ad957610ad8610c6c565b5b601f19601f8301169050602081019050919050565b600081519050919050565b600082825260208201905092915050565b600081905092915050565b6000610b2082610b27565b9050919050565b600073ffffffffffffffffffffffffffffffffffffffff82169050919050565b6000819050919050565b82818337600083830152505050565b60005b83811015610b7e578082015181840152602081019050610b63565b83811115610b8d576000848401525b50505050565b60006002820490506001821680610bab57607f821691505b60208210811415610bbf57610bbe610c3d565b5b50919050565b6000610bd082610b47565b91507fffffffffffffffffffffffffffffffffffffffffffffffffffffffffffffffff821415610c0357610c02610c0e565b5b600182019050919050565b7f4e487b7100000000000000000000000000000000000000000000000000000000600052601160045260246000fd5b7f4e487b7100000000000000000000000000000000000000000000000000000000600052602260045260246000fd5b7f4e487b7100000000000000000000000000000000000000000000000000000000600052604160045260246000fd5b6000601f19601f8301169050919050565b610cb581610b15565b8114610cc057600080fd5b5056fea26469706673582212206b531cc435591ec58832d4040c99788a9cee7ecfee4a7c31d03774d129f12d6f64736f6c63430008000033",
  "immutableReferences": {},
  "source": "// SPDX-License-Identifier: MIT\npragma solidity ^0.8.0;\n\ncontract FileSharing {\n    struct File {\n        string ipfsHash;\n        address owner;\n        address[] sharedWith;\n    }\n\n    mapping(string => File) private files;\n\n    function addFile(string memory _fileName, string memory _ipfsHash) public {\n        require(bytes(files[_fileName].ipfsHash).length == 0, \"File already exists\");\n        files[_fileName] = File(_ipfsHash, msg.sender, new address[](0));\n    }\n\n    function shareFile(string memory _fileName, address _recipient) public {\n        require(files[_fileName].owner == msg.sender, \"Only file owner can share\");\n        files[_fileName].sharedWith.push(_recipient);\n    }\n\n    function getFile(string memory _fileName) public view returns (string memory) {\n        require(files[_fileName].owner == msg.sender || isSharedWith(_fileName, msg.sender), \"Access denied\");\n        return files[_fileName].ipfsHash;\n    }\n\n    function isSharedWith(string memory _fileName, address _address) private view returns (bool) {\n        for (uint256 i = 0; i < files[_fileName].sharedWith.length; i++) {\n            if (files[_fileName].sharedWith[i] == _address) {\n                return true;\n            }\n        }\n        return false;\n    }\n}",
  "sourcePath": "/Users/monju/decentralized-file-sharing-dapp/contracts/FileSharing.sol",
  "compiler": {
    "name": "solc",
    "version": "0.8.0+commit.c7dfd78e.Emscripten.clang"
  },
  "schemaVersion": "3.4.16",
  "updatedAt": "2024-04-22T20:51:14.703Z",
  "networkType": "ethereum",
  "devdoc": {
    "kind": "dev",
    "methods": {},
    "version": 1
  },
  "userdoc": {
    "kind": "user",
    "methods": {},
    "version": 1
  }
}